:020000040800F2
:1000000000080020D10300089F030008A103000896
:10001000A3030008A5030008A703000800000000D0
:10002000000000000000000000000000A90300081C
:10003000AB03000800000000AD030008AF03000898
:10004000F1030008F5030008F9030008FD030008A8
:100050000104000805040008090400080D04000854
:100060001104000815040008190400081D04000804
:100070002104000825040008290400082D040008B4
:100080003104000835040008390400083D04000864
:100090004104000845040008490400084D04000814
:1000A0005104000855040008590400085D040008C4
:1000B0006104000865040008690400086D04000874
:1000C0007104000875040008790400087D04000824
:1000D0008104000885040008890400088D040008D4
:1000E00091040008950400089904000880B53E4971
:1000F000086850F0010008603C4A13683C4803401F
:1001000013600B683B4803400B60086830F48020A4
:100110000860106830F4FE0010605FF41F0036497C
:10012000086000F005F85FF000603449086001BD28
:1001300080B500F001F801BD82B0002001900020E0
:1001400000902949086850F480300860086810F46D
:10015000003000900198401C01900098002803D1C5
:100160000198B0F5A06FF1D10868800302D5012095
:10017000009001E0002000900098012831D1204833
:10018000026852F010020260026892089200026057
:10019000026852F0020202601448026802600268BB
:1001A0000260026852F480620260026832F47C12DB
:1001B0000260026852F4E81202600A6852F080722B
:1001C0000A600A689201FCD501688908890001600B
:1001D000016851F002010160016811F00C01082969
:1001E000FAD102B070470000001002400410024033
:1001F0000000FFF8FFFFF6FE0810024008ED00E0E7
:1002000000200240F0B4002200220022002200223E
:100210000022CB7813F00F03CA78D20601D58A7872
:1002200013430A78120620D0066800241AE0CA7820
:10023000482A16D1A740076113E0012717FA04F5F1
:100240000A882A40AA420CD1A2000F259540AE434D
:1002500013FA02F232431600CA78282AE7D1A740DF
:100260004761641C082CE8D306600A88B2F5807FD9
:1002700026DB4668002420E0012714F1080517FA60
:1002800005F50A882A40AA4216D1A2000F259540FA
:10029000AE4313FA02F232431600CA78282A04D178
:1002A00014F1080217FA02F24261CA78482A03D10F
:1002B00014F1080297400761641C082CDCD34660E7
:1002C000F0BC704789B20161704789B241617047E3
:1002D0000100481E0029FBD1704780B51B4800680B
:1002E00000900121102000F037F84FF40050ADF8D5
:1002F000000010208DF8030002208DF802006946EE
:100300001348FFF77FFF01BD80B5C0B2002805D1BB
:100310004FF400510E48FFF7D5FF04E04FF40051B1
:100320000B48FFF7D2FF01BD10B5FFF7D6FF012044
:10033000FFF7EAFF074C2000FFF7CAFF0020FFF796
:10034000E3FF2000FFF7C4FFF1E70000EC03000823
:1003500000100140FFFF0700C9B2002904D0054981
:100360000A681043086004E002490A6832EA0000A3
:10037000086070471810024000F00DF8002801D006
:10038000AFF30080AFF300800020AFF30080FFF7F1
:10039000CBFF00F002F80120704700F009B8704769
:1003A000FEE7FEE7FEE7FEE77047704770477047DD
:1003B0000746384600F002F8FBE7000080B5AFF3CF
:1003C0000080024A11001820ABBEFBE726000200A5
:1003D0000148804701480047ED000008E10300089C
:1003E000AFF30080AFF30080FFF7C6FF000000000E
:1003F000FFF7FEBFFFF7FEBFFFF7FEBFFFF7FEBF31
:10040000FFF7FEBFFFF7FEBFFFF7FEBFFFF7FEBF20
:10041000FFF7FEBFFFF7FEBFFFF7FEBFFFF7FEBF10
:10042000FFF7FEBFFFF7FEBFFFF7FEBFFFF7FEBF00
:10043000FFF7FEBFFFF7FEBFFFF7FEBFFFF7FEBFF0
:10044000FFF7FEBFFFF7FEBFFFF7FEBFFFF7FEBFE0
:10045000FFF7FEBFFFF7FEBFFFF7FEBFFFF7FEBFD0
:10046000FFF7FEBFFFF7FEBFFFF7FEBFFFF7FEBFC0
:10047000FFF7FEBFFFF7FEBFFFF7FEBFFFF7FEBFB0
:10048000FFF7FEBFFFF7FEBFFFF7FEBFFFF7FEBFA0
:0C049000FFF7FEBFFFF7FEBFFFF7FEBF47
:04000005080003E10B
:00000001FF
